:020000040000FA
:0400000047EF05F0D1
:100800000023002A0030003100320033003400356C
:1008100000360037003800390041004200430044F0
:100820000000F00E936E8168DFEC04F0819081B8D7
:100830000AD057EC05F0070E036E080E046E14EC98
:1008400005F0000E056E81BA0AD057EC05F0090ECE
:10085000036E080E046E14EC05F0010E056E81BCEB
:100860000AD057EC05F00B0E036E080E046E14EC64
:1008700005F0020E056E81BE0AD057EC05F0190E88
:10088000036E080E046E14EC05F0030E056E8180F5
:10089000819281B80AD057EC05F00D0E036E080E58
:1008A000046E14EC05F0040E056E81BA0AD057EC04
:1008B00005F00F0E036E080E046E14EC05F0050E25
:1008C000056E81BC0AD057EC05F0110E036E080EC0
:1008D000046E14EC05F0060E056E81BE0AD057ECCE
:1008E00005F01B0E036E080E046E14EC05F0070EE7
:1008F000056E8182819481B80AD057EC05F0130E01
:10090000036E080E046E14EC05F0070E056E81BA36
:100910000AD057EC05F0150E036E080E046E14ECA9
:1009200005F0080E056E81BC0AD057EC05F0170ED5
:10093000036E080E046E14EC05F0090E056E81BE00
:100940000AD057EC05F01D0E036E080E046E14EC71
:1009500005F00A0E056E8184819681B80AD057ECA5
:1009600005F0030E036E080E046E14EC05F00B0E7A
:10097000056E81BA0AD057EC05F0050E036E080E1D
:10098000046E14EC05F00C0E056E81BC0AD057EC19
:1009900005F0010E036E080E046E14EC05F00D0E4A
:1009A000056E81BE0AD057EC05F01F0E036E080ECF
:1009B000046E14EC05F00E0E056E81861200969002
:1009C00096920F0E926E8D908D92000E896E070E8C
:1009D000036E7D0EE82EFED7032EFCD700F0020E2C
:1009E000FCEC04F0280EFCEC04F00C0EFCEC04F023
:1009F000060EFCEC04F01200026E8D900250F00B1B
:100A0000896E3EEC05F002C001F00F0E01160138B0
:100A1000F00B896E3EEC05F0030E016E980EE82E89
:100A2000FED7012EFCD712000AD003C0F6FF04C087
:100A3000F7FF0800F55029EC05F0034A042A03C02B
:100A4000F6FF04C0F7FF0800F5500009D8B4120003
:100A5000ECD7026E8D800250F00B896E3EEC05F0F3
:100A600002C001F00F0E01160138F00B896E3EEC4A
:100A700005F0100EE82EFED700D012008D8200D0B7
:100A800000D000F08D9200D000D000F01200056A76
:100A9000000EF86E00014DEF05F052EC05F011EC80
:100AA00004F0FDD7F19E000E0F015C6F1200010EE5
:060AB000FCEC04F0120052
:020000040020DA
:08000000FFFFFFFFFFFFFFFF00
:020000040030CA
:0E00000000085E3CFFD381FF0FC00FE00F40F1
:00000001FF
