:020000040000FA
:040000007AEF05F09E
:10080000004573636F6765206F7063696F6E005298
:100810006567697374726F00416772656761720022
:10082000416C61726D6100496E6963696F002300FC
:100830002A00300031003200330034003500360029
:0F084000370038003900410042004300440000F7
:10085000F00E936E8168CBEC04F0819081B804D0E7
:1008600007EC06F0000E086E81BA04D0FEEC05F02D
:10087000010E086E81BC04D0F5EC05F0020E086E86
:1008800081BE04D0B6EC05F0030E086E8180819223
:1008900081B804D0ECEC05F0040E086E81BA04D0E7
:1008A000E3EC05F0050E086E81BC04D0DAEC05F02F
:1008B000060E086E81BE04D0ADEC05F0070E086E82
:1008C0008182819481B804D0D1EC05F0080E086EC5
:1008D00081BA04D0C8EC05F0090E086E81BC04D0C2
:1008E000BFEC05F00A0E086E81BE04D0A4EC05F042
:1008F0000B0E086E8184819681B804D092EC05F0CD
:100900000C0E086E81BA04D010EC06F00D0E086EC5
:1009100081BC04D089EC05F00E0E086E81BE04D0B7
:100920009BEC05F00F0E086E8186120028EC04F097
:100930002DD028EC04F0CBEC04F02CEC06F0010EEA
:10094000036E080E046E00EC05F00CD03EEC05F0D2
:100950001DD02AEC05F01AD066EC05F017D052EC49
:1009600005F014D00850056E066A0650000AD8A497
:100970000DD00550030AD8B4E9D7040AD8B4E9D792
:100980000C0AD8B4E9D7040AD8B4E9D7140E081869
:10099000D8B41200CED7969096920F0E926E8D908C
:1009A0008D92000E896E070E036E7D0EE82EFED727
:1009B000032EFCD700F0020EE8EC04F0280EE8EC61
:1009C00004F00C0EE8EC04F0060EE8EC04F0120063
:1009D000026E8D900250F00B896E19EC06F002C089
:1009E00001F00F0E01160138F00B896E19EC06F0BC
:1009F000030E016E980EE82EFED7012EFCD71200D2
:100A00000AD003C0F6FF04C0F7FF0800F55015EC4C
:100A100005F0034A042A03C0F6FF04C0F7FF0800EC
:100A2000F5500009D8B41200ECD7026E8D80025048
:100A3000F00B896E19EC06F002C001F00F0E0116E2
:100A40000138F00B896E19EC06F0100EE82EFED777
:100A500000D012000CD0CBEC04F02CEC06F00F0E02
:100A6000036E080E046E00EC05F028EC04F00E0E88
:100A70000818D8A4F0D7140E086E12000CD0CBECD6
:100A800004F02CEC06F0270E036E080E046E00EC4A
:100A900005F028EC04F00E0E0818D8A4F0D7140EB8
:100AA000086E12000CD0CBEC04F02CEC06F0200EFB
:100AB000036E080E046E00EC05F028EC04F00E0E38
:100AC0000818D8A4F0D7140E086E12000CD0CBEC86
:100AD00004F02CEC06F0180E036E080E046E00EC09
:100AE00005F028EC04F00E0E0818D8A4F0D7140E68
:100AF000086E1200600EF66E0C0EF76E000EF86EA9
:100B00000900F5CF08F0076A000EF86E000122EF29
:100B100006F02CEC06F02E0E036E080E046E00ECB0
:100B200005F012002CEC06F0300E036E080E046E79
:100B300000EC05F012002CEC06F04C0E036E080ED3
:100B4000046E00EC05F012002CEC06F04A0E036E69
:100B5000080E046E00EC05F012002CEC06F0480EB6
:100B6000036E080E046E00EC05F012002CEC06F08B
:100B7000460E036E080E046E00EC05F012002CEC1D
:100B800006F0440E036E080E046E00EC05F0120031
:100B90002CEC06F0420E036E080E046E00EC05F01D
:100BA00012002CEC06F0400E036E080E046E00ECF2
:100BB00005F012002CEC06F03E0E036E080E046EDB
:100BC00000EC05F012002CEC06F03C0E036E080E53
:100BD000046E00EC05F012002CEC06F03A0E036EE9
:100BE000080E046E00EC05F012002CEC06F0380E36
:100BF000036E080E046E00EC05F012002CEC06F0FB
:100C0000360E036E080E046E00EC05F012002CEC9C
:100C100006F0340E036E080E046E00EC05F01200B0
:100C20002CEC06F0320E036E080E046E00EC05F09C
:100C300012008D8200D000D000F08D9200D000D044
:100C400000F0120027EC06F096EC04F0FDD7F19EC0
:100C5000000E0F015C6F1200010EE8EC04F01200B0
:010C6000147F
:020000040020DA
:08000000FFFFFFFFFFFFFFFF00
:020000040030CA
:0E00000000085E3CFFD381FF0FC00FE00F40F1
:00000001FF
