:020000040000FA
:0400000066EF05F0B2
:1008000000696E696369616E646F207265672E00AE
:100810002A2F5369206F20232F436F6E742E00758B
:100820006E20726567697374726F3F00FF44657371
:1008300065612068616365720023002A0030003121
:1008400000320033003400350036003700380039FC
:1008500000410042004300440000F00E936E8168A6
:10086000F5EC04F0819081B804D054EC05F0000E52
:10087000056E81BA0AD076EC05F0410E036E080EC3
:10088000046E2AEC05F0010E056E81BC0AD076ECF0
:1008900005F0430E036E080E046E2AEC05F0020EFE
:1008A000056E81BE0AD076EC05F0510E036E080E7F
:1008B000046E2AEC05F0030E056E8180819281B8EA
:1008C0000AD076EC05F0450E036E080E046E2AEC95
:1008D00005F0040E056E81BA0AD076EC05F0470EDD
:1008E000036E080E046E2AEC05F0050E056E81BC41
:1008F0000AD076EC05F0490E036E080E046E2AEC61
:1009000005F0060E056E81BE0AD076EC05F0530E9A
:10091000036E080E046E2AEC05F0070E056E818248
:10092000819481B80AD076EC05F04B0E036E080E68
:10093000046E2AEC05F0070E056E81BA0AD076EC3B
:1009400005F04D0E036E080E046E2AEC05F0080E3D
:10095000056E81BC0AD076EC05F04F0E036E080ED2
:10096000046E2AEC05F0090E056E81BE0AD076EC05
:1009700005F0550E036E080E046E2AEC05F00A0E03
:10098000056E8184819681B80AD076EC05F03B0E25
:10099000036E080E046E2AEC05F00B0E056E81BA8C
:1009A0000AD076EC05F03D0E036E080E046E2AECBC
:1009B00005F00C0E056E81BC0AD076EC05F0390E00
:1009C000036E080E046E2AEC05F00D0E056E81BE56
:1009D0000AD076EC05F0570E036E080E046E2AEC72
:1009E00005F00E0E056E81861200969096920F0EFF
:1009F000926E8D908D92000E896E070E036E7D0EA5
:100A0000E82EFED7032EFCD700F0020E12EC05F004
:100A1000280E12EC05F00C0E12EC05F0060E12EC8E
:100A200005F01200026E8D900250F00B896E5DECA5
:100A300005F002C001F00F0E01160138F00B896EAF
:100A40005DEC05F0030E016E980EE82EFED7012E28
:100A5000FCD712000AD003C0F6FF04C0F7FF08005D
:100A6000F5503FEC05F0034A042A03C0F6FF04C02A
:100A7000F7FF0800F5500009D8B41200ECD7026E59
:100A80008D800250F00B896E5DEC05F002C001F024
:100A90000F0E01160138F00B896E5DEC05F0100E9B
:100AA000E82EFED700D0120076EC05F03F0E036E64
:100AB000080E046E2AEC05F012008D8200D000D0E2
:100AC00000F08D9200D000D000F01200056A000EF8
:100AD000F86E00016CEF05F071EC05F02DEC04F000
:100AE000FDD7F19E000E0F015C6F1200010E12EC9B
:040AF00005F01200FB
:020000040020DA
:08000000FFFFFFFFFFFFFFFF00
:020000040030CA
:0E00000000085E3CFFD381FF0FC00FE00F40F1
:00000001FF
