:020000040000FA
:0400000093EF05F085
:1008000000696E696369616E646F207265672E00AE
:100810002A2F5369206F20232F436F6E742E00758B
:100820006E20726567697374726F3F00FF44657371
:1008300065612068616365720023002A0030003121
:1008400000320033003400350036003700380039FC
:1008500000410042004300440000F00E936E8168A6
:100860009BEC04F0819081B804D078EC05F0000E88
:10087000056E81BA04D06FEC05F0010E056E81BCE7
:1008800004D066EC05F0020E056E81BE04D027ECA4
:1008900005F0030E056E8180819281B804D05DEC75
:1008A00005F0000E056E81BA04D054EC05F0010E7F
:1008B000056E81BC04D04BEC05F0020E056E81BEC6
:1008C00004D01EEC05F0030E056E8182819481B880
:1008D00004D042EC05F0000E056E81BA04D039EC6C
:1008E00005F0010E056E81BC04D030EC05F0020E5F
:1008F000056E81BE04D015EC05F0030E056E8184F3
:10090000819681B804D003EC05F0000E056E81BA23
:1009100004D081EC05F0010E056E81BC04D0FAEC28
:1009200004F0020E056E81BE04D00CEC05F0030E3F
:10093000056E81861200969096920F0E926E8D90A3
:100940008D92000E896E070E036E7D0EE82EFED787
:10095000032EFCD700F0020EB8EC04F0280EB8EC21
:1009600004F00C0EB8EC04F0060EB8EC04F0120023
:10097000026E8D900250F00B896E8AEC05F002C079
:1009800001F00F0E01160138F00B896E8AEC05F0AC
:10099000030E016E980EE82EFED7012EFCD7120032
:1009A0000AD003C0F6FF04C0F7FF0800F550E5ECDD
:1009B00004F0034A042A03C0F6FF04C0F7FF08004E
:1009C000F5500009D8B41200ECD7026E8D800250A9
:1009D000F00B896E8AEC05F002C001F00F0E0116D3
:1009E0000138F00B896E8AEC05F0100EE82EFED768
:1009F00000D01200A3EC05F0390E036E080E046E51
:100A0000D0EC04F01200A3EC05F03B0E036E080ED0
:100A1000046ED0EC04F01200A3EC05F0570E036E48
:100A2000080E046ED0EC04F01200A3EC05F0550E95
:100A3000036E080E046ED0EC04F01200A3EC05F077
:100A4000530E036E080E046ED0EC04F01200A3ECFB
:100A500005F0510E036E080E046ED0EC04F0120087
:100A6000A3EC05F04F0E036E080E046ED0EC04F0FC
:100A70001200A3EC05F04D0E036E080E046ED0ECD0
:100A800004F01200A3EC05F04B0E036E080E046E8A
:100A9000D0EC04F01200A3EC05F0490E036E080E32
:100AA000046ED0EC04F01200A3EC05F0470E036EC8
:100AB000080E046ED0EC04F01200A3EC05F0450E15
:100AC000036E080E046ED0EC04F01200A3EC05F0E7
:100AD000430E036E080E046ED0EC04F01200A3EC7B
:100AE00005F0410E036E080E046ED0EC04F0120007
:100AF000A3EC05F03F0E036E080E046ED0EC04F07C
:100B00001200A3EC05F03D0E036E080E046ED0EC4F
:100B100004F012008D8200D000D000F08D9200D041
:100B200000D000F01200056A000EF86E000199EF87
:100B300005F09EEC05F02DEC04F0FDD7F19E000EC3
:0E0B40000F015C6F1200010EB8EC04F0120001
:020000040020DA
:08000000FFFFFFFFFFFFFFFF00
:020000040030CA
:0E00000000085E3CFFD381FF0FC00FE00F40F1
:00000001FF
